{
  "contractName": "Note",
  "abi": [
    {
      "inputs": [
        {
          "internalType": "string",
          "name": "",
          "type": "string"
        }
      ],
      "name": "users",
      "outputs": [
        {
          "internalType": "string",
          "name": "name",
          "type": "string"
        },
        {
          "internalType": "uint256",
          "name": "number",
          "type": "uint256"
        },
        {
          "internalType": "string",
          "name": "adres",
          "type": "string"
        }
      ],
      "stateMutability": "view",
      "type": "function",
      "constant": true
    },
    {
      "inputs": [
        {
          "internalType": "string",
          "name": "name",
          "type": "string"
        },
        {
          "internalType": "uint256",
          "name": "number",
          "type": "uint256"
        },
        {
          "internalType": "string",
          "name": "adres",
          "type": "string"
        }
      ],
      "name": "setUser",
      "outputs": [],
      "stateMutability": "nonpayable",
      "type": "function"
    },
    {
      "inputs": [
        {
          "internalType": "string",
          "name": "name",
          "type": "string"
        }
      ],
      "name": "getUser",
      "outputs": [
        {
          "internalType": "uint256",
          "name": "number",
          "type": "uint256"
        },
        {
          "internalType": "string",
          "name": "adres",
          "type": "string"
        }
      ],
      "stateMutability": "view",
      "type": "function",
      "constant": true
    }
  ],
  "bytecode": "0x608060405234801561001057600080fd5b50610a36806100206000396000f3fe608060405234801561001057600080fd5b50600436106100415760003560e01c80631d7067711461004657806331feb67114610062578063689e1c0314610093575b600080fd5b610060600480360381019061005b91906104f8565b6100c5565b005b61007c60048036038101906100779190610583565b61013c565b60405161008a92919061065a565b60405180910390f35b6100ad60048036038101906100a89190610583565b610218565b6040516100bc9392919061068a565b60405180910390f35b6040518060600160405280848152602001838152602001828152506000846040516100f0919061070b565b90815260200160405180910390206000820151816000019081610113919061092e565b50602082015181600101556040820151816002019081610133919061092e565b50905050505050565b60006060600083604051610150919061070b565b908152602001604051809103902060010154600084604051610172919061070b565b908152602001604051809103902060020180805461018f90610751565b80601f01602080910402602001604051908101604052809291908181526020018280546101bb90610751565b80156102085780601f106101dd57610100808354040283529160200191610208565b820191906000526020600020905b8154815290600101906020018083116101eb57829003601f168201915b5050505050905091509150915091565b60008180516020810182018051848252602083016020850120818352809550505050505060009150905080600001805461025190610751565b80601f016020809104026020016040519081016040528092919081815260200182805461027d90610751565b80156102ca5780601f1061029f576101008083540402835291602001916102ca565b820191906000526020600020905b8154815290600101906020018083116102ad57829003601f168201915b5050505050908060010154908060020180546102e590610751565b80601f016020809104026020016040519081016040528092919081815260200182805461031190610751565b801561035e5780601f106103335761010080835404028352916020019161035e565b820191906000526020600020905b81548152906001019060200180831161034157829003601f168201915b5050505050905083565b6000604051905090565b600080fd5b600080fd5b600080fd5b600080fd5b6000601f19601f8301169050919050565b7f4e487b7100000000000000000000000000000000000000000000000000000000600052604160045260246000fd5b6103cf82610386565b810181811067ffffffffffffffff821117156103ee576103ed610397565b5b80604052505050565b6000610401610368565b905061040d82826103c6565b919050565b600067ffffffffffffffff82111561042d5761042c610397565b5b61043682610386565b9050602081019050919050565b82818337600083830152505050565b600061046561046084610412565b6103f7565b90508281526020810184848401111561048157610480610381565b5b61048c848285610443565b509392505050565b600082601f8301126104a9576104a861037c565b5b81356104b9848260208601610452565b91505092915050565b6000819050919050565b6104d5816104c2565b81146104e057600080fd5b50565b6000813590506104f2816104cc565b92915050565b60008060006060848603121561051157610510610372565b5b600084013567ffffffffffffffff81111561052f5761052e610377565b5b61053b86828701610494565b935050602061054c868287016104e3565b925050604084013567ffffffffffffffff81111561056d5761056c610377565b5b61057986828701610494565b9150509250925092565b60006020828403121561059957610598610372565b5b600082013567ffffffffffffffff8111156105b7576105b6610377565b5b6105c384828501610494565b91505092915050565b6105d5816104c2565b82525050565b600081519050919050565b600082825260208201905092915050565b60005b838110156106155780820151818401526020810190506105fa565b60008484015250505050565b600061062c826105db565b61063681856105e6565b93506106468185602086016105f7565b61064f81610386565b840191505092915050565b600060408201905061066f60008301856105cc565b81810360208301526106818184610621565b90509392505050565b600060608201905081810360008301526106a48186610621565b90506106b360208301856105cc565b81810360408301526106c58184610621565b9050949350505050565b600081905092915050565b60006106e5826105db565b6106ef81856106cf565b93506106ff8185602086016105f7565b80840191505092915050565b600061071782846106da565b915081905092915050565b7f4e487b7100000000000000000000000000000000000000000000000000000000600052602260045260246000fd5b6000600282049050600182168061076957607f821691505b60208210810361077c5761077b610722565b5b50919050565b60008190508160005260206000209050919050565b60006020601f8301049050919050565b600082821b905092915050565b6000600883026107e47fffffffffffffffffffffffffffffffffffffffffffffffffffffffffffffffff826107a7565b6107ee86836107a7565b95508019841693508086168417925050509392505050565b6000819050919050565b600061082b610826610821846104c2565b610806565b6104c2565b9050919050565b6000819050919050565b61084583610810565b61085961085182610832565b8484546107b4565b825550505050565b600090565b61086e610861565b61087981848461083c565b505050565b5b8181101561089d57610892600082610866565b60018101905061087f565b5050565b601f8211156108e2576108b381610782565b6108bc84610797565b810160208510156108cb578190505b6108df6108d785610797565b83018261087e565b50505b505050565b600082821c905092915050565b6000610905600019846008026108e7565b1980831691505092915050565b600061091e83836108f4565b9150826002028217905092915050565b610937826105db565b67ffffffffffffffff8111156109505761094f610397565b5b61095a8254610751565b6109658282856108a1565b600060209050601f8311600181146109985760008415610986578287015190505b6109908582610912565b8655506109f8565b601f1984166109a686610782565b60005b828110156109ce578489015182556001820191506020850194506020810190506109a9565b868310156109eb57848901516109e7601f8916826108f4565b8355505b6001600288020188555050505b50505050505056fea2646970667358221220f1c40045e367b6019610aa1473725c912b7e84f813359f003ec7e7b069abdb0a64736f6c63430008120033",
  "immutableReferences": {},
  "source": "// SPDX-License-Identifier: MIT\npragma solidity >=0.4.22 <0.9.0;\n\ncontract Note {\n  struct user{\n    string name;\n    uint number;\n    string adres;\n  }\n  mapping(string => user) public users;\n\n  function setUser(string memory name, uint number, string memory adres) public {\n    users[name] = user(name, number, adres);\n  }\n\n  function getUser(string memory name) public view returns(uint number, string memory adres) {\n    return (users[name].number, users[name].adres);\n  }\n}\n",
  "sourcePath": "/Users/mr_great/Desktop/SmartContracts/Note/contracts/Note.sol",
  "compiler": {
    "name": "solc",
    "version": "0.8.18+commit.87f61d96.Emscripten.clang"
  },
  "schemaVersion": "3.4.11",
  "updatedAt": "2023-02-14T19:38:08.429Z",
  "networkType": "ethereum",
  "devdoc": {
    "kind": "dev",
    "methods": {},
    "version": 1
  },
  "userdoc": {
    "kind": "user",
    "methods": {},
    "version": 1
  }
}